{
  "contractName": "Endorsable",
  "abi": [
    {
      "constant": true,
      "inputs": [],
      "name": "EUIPO",
      "outputs": [
        {
          "name": "",
          "type": "address"
        }
      ],
      "payable": false,
      "stateMutability": "view",
      "type": "function"
    },
    {
      "constant": true,
      "inputs": [
        {
          "name": "",
          "type": "uint256"
        },
        {
          "name": "",
          "type": "uint256"
        }
      ],
      "name": "endorsmentsForCount",
      "outputs": [
        {
          "name": "",
          "type": "address"
        }
      ],
      "payable": false,
      "stateMutability": "view",
      "type": "function"
    },
    {
      "constant": true,
      "inputs": [
        {
          "name": "",
          "type": "uint256"
        },
        {
          "name": "",
          "type": "address"
        }
      ],
      "name": "endorsments",
      "outputs": [
        {
          "name": "",
          "type": "bool"
        }
      ],
      "payable": false,
      "stateMutability": "view",
      "type": "function"
    },
    {
      "anonymous": false,
      "inputs": [
        {
          "indexed": false,
          "name": "_tokenId",
          "type": "uint256"
        },
        {
          "indexed": true,
          "name": "_endorser",
          "type": "address"
        }
      ],
      "name": "Endorsment",
      "type": "event"
    },
    {
      "constant": true,
      "inputs": [
        {
          "name": "_tokenId",
          "type": "uint256"
        },
        {
          "name": "_endorser",
          "type": "address"
        }
      ],
      "name": "endorsedBy",
      "outputs": [
        {
          "name": "_endorsed",
          "type": "bool"
        }
      ],
      "payable": false,
      "stateMutability": "view",
      "type": "function"
    },
    {
      "constant": true,
      "inputs": [
        {
          "name": "_tokenId",
          "type": "uint256"
        },
        {
          "name": "_index",
          "type": "uint256"
        }
      ],
      "name": "getEndorserByIndex",
      "outputs": [
        {
          "name": "_endorser",
          "type": "address"
        }
      ],
      "payable": false,
      "stateMutability": "view",
      "type": "function"
    },
    {
      "constant": true,
      "inputs": [
        {
          "name": "_tokenId",
          "type": "uint256"
        }
      ],
      "name": "getEndorsersCount",
      "outputs": [
        {
          "name": "_endorsersCount",
          "type": "uint256"
        }
      ],
      "payable": false,
      "stateMutability": "view",
      "type": "function"
    },
    {
      "constant": true,
      "inputs": [
        {
          "name": "_tokenId",
          "type": "uint256"
        }
      ],
      "name": "endorsedByEUIPO",
      "outputs": [
        {
          "name": "_success",
          "type": "bool"
        }
      ],
      "payable": false,
      "stateMutability": "view",
      "type": "function"
    },
    {
      "constant": false,
      "inputs": [
        {
          "name": "_tokenId",
          "type": "uint256"
        }
      ],
      "name": "endorse",
      "outputs": [],
      "payable": false,
      "stateMutability": "nonpayable",
      "type": "function"
    }
  ],
  "bytecode": "0x608060405234801561001057600080fd5b506106f3806100206000396000f30060806040526004361061008e576000357c0100000000000000000000000000000000000000000000000000000000900463ffffffff168063028e7a7e14610093578063047ed8af146100d45780631fcfe3eb1461014b5780632b1d74aa1461017857806352ac904f146101bd57806359e282ee146102145780638195ef231461028b578063b0f7262d146102f0575b600080fd5b34801561009f57600080fd5b506100be60048036038101908080359060200190929190505050610355565b6040518082815260200191505060405180910390f35b3480156100e057600080fd5b506101096004803603810190808035906020019092919080359060200190929190505050610374565b604051808273ffffffffffffffffffffffffffffffffffffffff1673ffffffffffffffffffffffffffffffffffffffff16815260200191505060405180910390f35b34801561015757600080fd5b50610176600480360381019080803590602001909291905050506103ef565b005b34801561018457600080fd5b506101a360048036038101908080359060200190929190505050610534565b604051808215151515815260200191505060405180910390f35b3480156101c957600080fd5b506101d26105bd565b604051808273ffffffffffffffffffffffffffffffffffffffff1673ffffffffffffffffffffffffffffffffffffffff16815260200191505060405180910390f35b34801561022057600080fd5b5061024960048036038101908080359060200190929190803590602001909291905050506105e3565b604051808273ffffffffffffffffffffffffffffffffffffffff1673ffffffffffffffffffffffffffffffffffffffff16815260200191505060405180910390f35b34801561029757600080fd5b506102d660048036038101908080359060200190929190803573ffffffffffffffffffffffffffffffffffffffff169060200190929190505050610630565b604051808215151515815260200191505060405180910390f35b3480156102fc57600080fd5b5061033b60048036038101908080359060200190929190803573ffffffffffffffffffffffffffffffffffffffff16906020019092919050505061065f565b604051808215151515815260200191505060405180910390f35b6000806000838152602001908152602001600020805490509050919050565b600060016000808581526020019081526020016000208054905003821015151561039d57600080fd5b600080848152602001908152602001600020828154811015156103bc57fe5b9060005260206000200160009054906101000a900473ffffffffffffffffffffffffffffffffffffffff16905092915050565b6103f9813361065f565b15151561040557600080fd5b600180600083815260200190815260200160002060003373ffffffffffffffffffffffffffffffffffffffff1673ffffffffffffffffffffffffffffffffffffffff16815260200190815260200160002060006101000a81548160ff0219169083151502179055506000808281526020019081526020016000203390806001815401808255809150509060018203906000526020600020016000909192909190916101000a81548173ffffffffffffffffffffffffffffffffffffffff021916908373ffffffffffffffffffffffffffffffffffffffff160217905550503373ffffffffffffffffffffffffffffffffffffffff167f6a44cce1bf083685eb8023626a60b50f77e0bc458f3d18be2a19aed4be5d964c826040518082815260200191505060405180910390a250565b6000600160008381526020019081526020016000206000600260009054906101000a900473ffffffffffffffffffffffffffffffffffffffff1673ffffffffffffffffffffffffffffffffffffffff1673ffffffffffffffffffffffffffffffffffffffff16815260200190815260200160002060009054906101000a900460ff169050919050565b600260009054906101000a900473ffffffffffffffffffffffffffffffffffffffff1681565b6000602052816000526040600020818154811015156105fe57fe5b906000526020600020016000915091509054906101000a900473ffffffffffffffffffffffffffffffffffffffff1681565b60016020528160005260406000206020528060005260406000206000915091509054906101000a900460ff1681565b60006001600084815260200190815260200160002060008373ffffffffffffffffffffffffffffffffffffffff1673ffffffffffffffffffffffffffffffffffffffff16815260200190815260200160002060009054906101000a900460ff169050929150505600a165627a7a723058202ec9feb45034a16aac138de315e477cbc26786a2d2ff356d9333d823c03b645b0029",
  "source": " pragma solidity ^0.4.23;\n\n contract Endorsable {\n   mapping(uint256 => address[]) public endorsmentsForCount;\n   mapping(uint256 => mapping(address=>bool)) public endorsments;\n\n   event Endorsment(uint256 _tokenId,address indexed _endorser);\n\n   address public EUIPO;\n\n   function endorsedBy(uint256 _tokenId, address _endorser) public view returns (bool _endorsed){\n     return endorsments[_tokenId][_endorser];\n   }\n\n   function getEndorserByIndex(uint256 _tokenId, uint256 _index) public view returns (address _endorser){\n     require(_index>=endorsmentsForCount[_tokenId].length-1);\n       return endorsmentsForCount[_tokenId][_index];\n   }\n   function getEndorsersCount(uint256 _tokenId) public view returns (uint256 _endorsersCount){\n     return endorsmentsForCount[_tokenId].length;\n   }\n\n   function endorsedByEUIPO(uint256 _tokenId) public view returns (bool _success)\n   {\n     return endorsments[_tokenId][EUIPO];\n   }\n\n   function endorse(uint256 _tokenId) public {\n     require(!endorsedBy(_tokenId,msg.sender));\n     endorsments[_tokenId][msg.sender] = true;\n     endorsmentsForCount[_tokenId].push(msg.sender);\n     emit Endorsment(_tokenId,msg.sender);\n   }\n }\n",
  "sourcePath": "/Users/thomasvanderstraeten/code/waca/waca-ethereum/contracts/tokens/IDToken/Endorsable.sol",
  "compiler": {
    "name": "solc",
    "version": "0.4.24+commit.e67f0147.Emscripten.clang"
  },
  "schemaVersion": "2.0.1",
  "updatedAt": "2018-06-23T22:25:51.660Z"
}