{
  "contractName": "ERC721Stripped",
  "abi": [
    {
      "anonymous": false,
      "inputs": [
        {
          "indexed": true,
          "name": "_from",
          "type": "address"
        },
        {
          "indexed": true,
          "name": "_to",
          "type": "address"
        },
        {
          "indexed": false,
          "name": "_tokenId",
          "type": "uint256"
        }
      ],
      "name": "Transfer",
      "type": "event"
    },
    {
      "constant": true,
      "inputs": [],
      "name": "totalSupply",
      "outputs": [
        {
          "name": "_supply",
          "type": "uint256"
        }
      ],
      "payable": false,
      "stateMutability": "view",
      "type": "function"
    },
    {
      "constant": true,
      "inputs": [
        {
          "name": "_tokenId",
          "type": "uint256"
        }
      ],
      "name": "ownerOf",
      "outputs": [
        {
          "name": "_owner",
          "type": "address"
        }
      ],
      "payable": false,
      "stateMutability": "view",
      "type": "function"
    },
    {
      "constant": true,
      "inputs": [
        {
          "name": "_tokenId",
          "type": "uint256"
        }
      ],
      "name": "exists",
      "outputs": [
        {
          "name": "_exists",
          "type": "bool"
        }
      ],
      "payable": false,
      "stateMutability": "view",
      "type": "function"
    }
  ],
  "bytecode": "0x608060405234801561001057600080fd5b506101ef806100206000396000f300608060405260043610610057576000357c0100000000000000000000000000000000000000000000000000000000900463ffffffff16806318160ddd1461005c5780634f558e79146100875780636352211e146100cc575b600080fd5b34801561006857600080fd5b50610071610139565b6040518082815260200191505060405180910390f35b34801561009357600080fd5b506100b260048036038101908080359060200190929190505050610145565b604051808215151515815260200191505060405180910390f35b3480156100d857600080fd5b506100f760048036038101908080359060200190929190505050610186565b604051808273ffffffffffffffffffffffffffffffffffffffff1673ffffffffffffffffffffffffffffffffffffffff16815260200191505060405180910390f35b60008080549050905090565b60008073ffffffffffffffffffffffffffffffffffffffff1661016783610186565b73ffffffffffffffffffffffffffffffffffffffff1614159050919050565b60006002600083815260200190815260200160002060009054906101000a900473ffffffffffffffffffffffffffffffffffffffff1690509190505600a165627a7a7230582096701dff08e71dff3708f01bc23bc085a89f10f298b808c22e802702fce55b290029",
  "source": "pragma solidity ^0.4.23;\n\nimport \"../../math/SafeMath.sol\";\n\ncontract ERC721Stripped {\n  using SafeMath for uint256;\n\n  uint256[] internal allTokens;\n\n  // Mapping from token id to position in the allTokens array\n  mapping (uint256 => uint256) internal allTokensIndex;\n  mapping (uint256 => address) internal tokenOwner;\n  mapping (address => uint256) internal ownedTokensCount;\n\n  event Transfer(\n    address indexed _from,\n    address indexed _to,\n    uint256 _tokenId\n  );\n\n  function totalSupply() public view returns (uint256 _supply) {\n    return allTokens.length;\n  }\n\n  function ownerOf(uint256 _tokenId) public view returns (address _owner) {\n    return tokenOwner[_tokenId];\n  }\n\n  function exists(uint256 _tokenId) public view returns (bool _exists) {\n    return (ownerOf(_tokenId) != address(0));\n  }\n\n  function _mint(address _to, uint256 _tokenId) internal {\n    require(_to != address(0));\n    addTokenTo(_to, _tokenId);\n    emit Transfer(address(0), _to, _tokenId);\n  }\n\n  function addTokenTo(address _to, uint256 _tokenId) internal {\n    require(tokenOwner[_tokenId] == address(0));\n    tokenOwner[_tokenId] = _to;\n    ownedTokensCount[_to] = ownedTokensCount[_to].add(1);\n  }\n}\n",
  "sourcePath": "/Users/thomasvanderstraeten/code/waca/waca-ethereum/contracts/tokens/IDToken/ERC721Stripped.sol",
  "compiler": {
    "name": "solc",
    "version": "0.4.23+commit.124ca40d.Emscripten.clang"
  },
  "schemaVersion": "2.0.0",
  "updatedAt": "2018-06-23T08:48:06.779Z"
}