{
  "contractName": "MetaDatable",
  "abi": [
    {
      "constant": true,
      "inputs": [
        {
          "name": "_tokenId",
          "type": "uint256"
        }
      ],
      "name": "tokenName",
      "outputs": [
        {
          "name": "_name",
          "type": "string"
        }
      ],
      "payable": false,
      "stateMutability": "view",
      "type": "function"
    }
  ],
  "bytecode": "0x608060405234801561001057600080fd5b506101cc806100206000396000f300608060405260043610610041576000357c0100000000000000000000000000000000000000000000000000000000900463ffffffff168063e725f87714610046575b600080fd5b34801561005257600080fd5b50610071600480360381019080803590602001909291905050506100ec565b6040518080602001828103825283818151815260200191508051906020019080838360005b838110156100b1578082015181840152602081019050610096565b50505050905090810190601f1680156100de5780820380516001836020036101000a031916815260200191505b509250505060405180910390f35b60606000808381526020019081526020016000208054600181600116156101000203166002900480601f0160208091040260200160405190810160405280929190818152602001828054600181600116156101000203166002900480156101945780601f1061016957610100808354040283529160200191610194565b820191906000526020600020905b81548152906001019060200180831161017757829003601f168201915b505050505090509190505600a165627a7a723058200a28a1c6e6318d2b1522638a986c384a9ababf6343195707f01c1465d659e6220029",
  "source": "pragma solidity ^0.4.23;\n\ncontract MetaDatable {\n  mapping(uint256 => string) internal tokenNames;\n\n  function tokenName(uint256 _tokenId) public view returns (string _name) {\n    return tokenNames[_tokenId];\n  }\n}\n",
  "sourcePath": "/Users/thomasvanderstraeten/code/waca/waca-ethereum/contracts/tokens/IDToken/MetaDatable.sol",
  "compiler": {
    "name": "solc",
    "version": "0.4.24+commit.e67f0147.Emscripten.clang"
  },
  "schemaVersion": "2.0.1",
  "updatedAt": "2018-06-23T22:35:33.358Z"
}