{
  "contractName": "MetaDatable",
  "abi": [
    {
      "constant": true,
      "inputs": [
        {
          "name": "_tokenId",
          "type": "uint256"
        }
      ],
      "name": "tokenBarCode",
      "outputs": [
        {
          "name": "_barCode",
          "type": "string"
        }
      ],
      "payable": false,
      "stateMutability": "view",
      "type": "function"
    },
    {
      "constant": true,
      "inputs": [
        {
          "name": "_tokenId",
          "type": "uint256"
        }
      ],
      "name": "tokenDescription",
      "outputs": [
        {
          "name": "_tokenDescription",
          "type": "string"
        }
      ],
      "payable": false,
      "stateMutability": "view",
      "type": "function"
    },
    {
      "constant": true,
      "inputs": [
        {
          "name": "_barCode",
          "type": "string"
        }
      ],
      "name": "ownerOfByBarCode",
      "outputs": [
        {
          "name": "_owner",
          "type": "address"
        }
      ],
      "payable": false,
      "stateMutability": "view",
      "type": "function"
    },
    {
      "constant": true,
      "inputs": [
        {
          "name": "_barCode",
          "type": "string"
        }
      ],
      "name": "tokenByBarCode",
      "outputs": [
        {
          "name": "_tokenId",
          "type": "uint256"
        }
      ],
      "payable": false,
      "stateMutability": "view",
      "type": "function"
    }
  ],
  "bytecode": "0x608060405234801561001057600080fd5b50610578806100206000396000f300608060405260043610610062576000357c0100000000000000000000000000000000000000000000000000000000900463ffffffff1680632a3fecc5146100675780633fd7465e14610110578063a0c6d5371461018d578063b66d4ca314610233575b600080fd5b34801561007357600080fd5b506100ce600480360381019080803590602001908201803590602001908080601f01602080910402602001604051908101604052809392919081815260200183838082843782019150505050505091929192905050506102d9565b604051808273ffffffffffffffffffffffffffffffffffffffff1673ffffffffffffffffffffffffffffffffffffffff16815260200191505060405180910390f35b34801561011c57600080fd5b50610177600480360381019080803590602001908201803590602001908080601f016020809104026020016040519081016040528093929190818152602001838380828437820191505050505050919291929050505061036e565b6040518082815260200191505060405180910390f35b34801561019957600080fd5b506101b8600480360381019080803590602001909291905050506103e3565b6040518080602001828103825283818151815260200191508051906020019080838360005b838110156101f85780820151818401526020810190506101dd565b50505050905090810190601f1680156102255780820380516001836020036101000a031916815260200191505b509250505060405180910390f35b34801561023f57600080fd5b5061025e60048036038101908080359060200190929190505050610498565b6040518080602001828103825283818151815260200191508051906020019080838360005b8381101561029e578082015181840152602081019050610283565b50505050905090810190601f1680156102cb5780820380516001836020036101000a031916815260200191505b509250505060405180910390f35b60006002826040518082805190602001908083835b60208310151561031357805182526020820191506020810190506020830392506102ee565b6001836020036101000a038019825116818451168082178552505050505050905001915050908152602001604051809103902060009054906101000a900473ffffffffffffffffffffffffffffffffffffffff169050919050565b60006003826040518082805190602001908083835b6020831015156103a85780518252602082019150602081019050602083039250610383565b6001836020036101000a0380198251168184511680821785525050505050509050019150509081526020016040518091039020549050919050565b6060600160008381526020019081526020016000208054600181600116156101000203166002900480601f01602080910402602001604051908101604052809291908181526020018280546001816001161561010002031660029004801561048c5780601f106104615761010080835404028352916020019161048c565b820191906000526020600020905b81548152906001019060200180831161046f57829003601f168201915b50505050509050919050565b60606000808381526020019081526020016000208054600181600116156101000203166002900480601f0160208091040260200160405190810160405280929190818152602001828054600181600116156101000203166002900480156105405780601f1061051557610100808354040283529160200191610540565b820191906000526020600020905b81548152906001019060200180831161052357829003601f168201915b505050505090509190505600a165627a7a72305820c497d66e3ba357b8a4e72a6cbc870368cee85d5bd119697ae63d8adb9bc12a570029",
  "source": "pragma solidity ^0.4.23;\n\ncontract MetaDatable {\n  mapping(uint256 => string) internal tokenBarCodes;\n  mapping(uint256 => string) internal tokenDescriptions;\n  mapping(string => address) internal tokenOwnersByBarCodes;\n  mapping(string => uint256) internal tokensByBarCodes;\n\n  function tokenBarCode(uint256 _tokenId) public view returns (string _barCode) {\n    return tokenBarCodes[_tokenId];\n  }\n\n  function tokenDescription(uint256 _tokenId) public view returns (string _tokenDescription) {\n    return tokenDescriptions[_tokenId];\n  }\n\n  function ownerOfByBarCode(string _barCode) public view returns (address _owner) {\n    return tokenOwnersByBarCodes[_barCode];\n  }\n\n  function tokenByBarCode(string _barCode) public view returns (uint256 _tokenId) {\n    return tokensByBarCodes[_barCode];\n  }\n}\n",
  "sourcePath": "/Users/thomasvanderstraeten/code/waca/waca-ethereum/contracts/tokens/SKUToken/MetaDatable.sol",
  "compiler": {
    "name": "solc",
    "version": "0.4.24+commit.e67f0147.Emscripten.clang"
  },
  "schemaVersion": "2.0.1",
  "updatedAt": "2018-06-23T22:25:51.664Z"
}